:090000000207CCB29022B2912259
:0E000B00020B4C120C06120BCF00D2AF0022DB
:10002300020AAAE709F608DFFA8046E709F208DFC1
:10003300FA803E88828C83E709F0A3DFFA8032E3FB
:1000430009F608DFFA8078E309F208DFFA8070889E
:10005300828C83E309F0A3DFFA806489828A83E0D8
:10006300A3F608DFFA805889828A83E0A3F208DFC7
:10007300FA804C80D280FA80C680D4806980F28076
:1000830033801080A680EA809A80A880DA80E2809C
:10009300CA803389828A83ECFAE493A3C8C582C8F1
:1000A300CCC583CCF0A3C8C582C8CCC583CCDFE95B
:1000B300DEE7800D89828A83E493A3F608DFF9ECF7
:1000C300FAA9F0EDFB2289828A83ECFAE0A3C8C582
:1000D30082C8CCC583CCF0A3C8C582C8CCC583CCA9
:1000E300DFEADEE880DB89828A83E493A3F208DF18
:1000F300F980CC88F0EF60010E4E60C388F0ED24E8
:1001030002B4040050B9F582EB2402B4040050AFEA
:10011300232345822390007673BB010689828A8359
:10012300E0225002E722BBFE02E32289828A83E4B3
:100133009322BB010CE58229F582E5833AF583E03E
:10014300225006E92582F8E622BBFE06E92582F85D
:10015300E222E58229F582E5833AF583E49322BB23
:10016300010FF8E58229F582E5833AF583E028F06B
:10017300225009C58229F8E58226F622BBFE09C56D
:100183008229F8E22582F222F8EA2583F583E993AE
:100193002822BB010689828A83F0225002F722BB00
:1001A300FE01F322C5F0F8A3E028F0C5F0F8E582DC
:1001B300158270021583E038F022A3F8E0C5F0251C
:1001C300F0F0E582158270021583E0C838F0E8226A
:1001D300BB0110E58229F582E5833AF583E0F5F06A
:1001E300A3E0225009E92582F886F008E622BBFE47
:1001F3000AE92582F8E2F5F008E222E5832AF5838D
:10020300E993F5F0A3E99322E88FF0A4CC8BF0A453
:100213002CFCE98EF0A42CFC8AF0EDA42CFCEA8ED5
:10022300F0A4CDA8F08BF0A42DCC3825F0FDE98FF8
:10023300F0A42CCD35F0FCEB8EF0A4FEA9F0EB8FEF
:10024300F0A4CFC5F02ECD39FEE43CFCEAA42DCEBC
:1002530035F0FDE43CFC2275F008758200EF2FFFBA
:10026300EE33FECD33CDCC33CCC58233C5829BED8B
:100273009AEC99E58298400CF582EE9BFEED9AFD8F
:10028300EC99FC0FD5F0D6E4CEFBE4CDFAE4CCF93F
:10029300A88222B800C1B90059BA002DEC8BF084B2
:1002A300CFCECDFCE5F0CBF97818EF2FFFEE33FE80
:1002B300ED33FDEC33FCEB33FB10D703994004EB38
:1002C30099FB0FD8E5E4F9FA227818EF2FFFEE3304
:1002D300FEED33FDEC33FCC933C910D7059BE99A16
:1002E3004007EC9BFCE99AF90FD8E0E4C9FAE4CCA7
:1002F300FB2275F010EF2FFFEE33FEED33FDCC3311
:10030300CCC833C810D7079BEC9AE899400AED9BF9
:10031300FDEC9AFCE899F80FD5F0DAE4CDFBE4CCD8
:10032300FAE4C8F922EB9FF5F0EA9E42F0E99D4218
:10033300F0E89C45F022E8600FECC313FCED13FDDD
:10034300EE13FEEF13FFD8F122BB010DE58229F571
:1003530082E5833AF58302044C5007E92582F802CB
:100363000440BBFE07E92582F8020458E58229F51B
:1003730082E5833AF583020464BB010DE58229F526
:1003830082E5833AF5830203D05007E92582F80218
:1003930004AABBFE07E92582F80204B622BB010DBD
:1003A300E58229F582E5833AF5830204815007E962
:1003B3002582F8020474BBFE07E92582F802048D46
:1003C300E58229F582E5833AF58302049AECF0A3EA
:1003D300EDF0A3EEF0A3EFF022A8828583F0D083A3
:1003E300D0821203F31203F31203F31203F3E47341
:1003F300E493A3C583C5F0C583C8C582C8F0A3C56C
:1004030083C5F0C583C8C582C8228A838982E47301
:10041300EC8EF0A4CCC5F0CCCDF8EFA4CEC5F02D76
:10042300FDE43CFCE8A42EC8C5F03DFDE43CFCEF34
:10043300A4FFE5F028FEE43DFDE43CFC22E6FC08D5
:10044300E6FD08E6FE08E6FF22E0FCA3E0FDA3E0EC
:10045300FEA3E0FF22E2FC08E2FD08E2FE08E2FF61
:1004630022E493FC740193FD740293FE740393FFDF
:1004730022E6FB08E6F908E6FA08E6CBF822E0F8FC
:10048300A3E0F9A3E0FAA3E0FB22E2FB08E2F90808
:10049300E2FA08E2CBF822E493F8740193F97402C8
:1004A30093FA740393FB22ECF608EDF608EEF608D4
:1004B300EFF622ECF208EDF208EEF208EFF22290EA
:1004C300006FEBF0A3EAF0A3E9F01209DD900072EC
:1004D3001203D0C28C90006FE0FBA3E0FAA3E0F913
:1004E30012011C25E025E0FFE58954FB4FF58990B7
:1004F3000001120135FFE58954FC4FF58990000294
:100503001201357F0070027F01EFC433333354800F
:10051300FFE58E547F4FF58E90006FE0FBA3E0FA6A
:10052300A3E0F99000041203A07F407E427D0F7C7C
:1005330000120296C004C005C006C007E58E7F0006
:1005430020E7027F01EF75F00BA42401FFE435F0EF
:10055300FE3395E0FDFCD003D002D001D00012029F
:100563000BA804A905AA06AB07900072E0FCA3E060
:10057300FDA3E0FEA3E0FF120296C3E49FFFE49E07
:10058300FE74019DFDE49CFC90006FE0FBA3E0FA88
:10059300A3E0F990000412037C90000412034C9032
:1005A300008A1203D0900001120135640290006F9B
:1005B3007014E0FBA3E0FAA3E0F990000412034CEB
:1005C3008F8A8F8C801DE0FBA3E0FAA3E0F99000F3
:1005D3000412034C8F8A90000412034C7808120310
:1005E300398F8C90006FE0FBA3E0FAA3E0F9900051
:1005F30003120135FFE58F54FE4FF58F900008126B
:10060300013524FF928C7F0022900066EBF0A3EA71
:10061300F0A3E9F0900053E0D394007480948050E9
:1006230003020721C2A9E4FF900053E0FEEFC39E3B
:100633004003020721EF75F008A42413F582E43484
:1006430000F583E0FBA3E0FAA3E0F9C003C002C016
:1006530001900066E0FBA3E0FAA3E0F9D082D08327
:10066300D0E06B7008E965827003EA65836003027A
:10067300071D900053E014F0E0FE75F008A4241366
:10068300F582E43400F583E0FBA3E0FAA3E0F9EF9D
:1006930075F008A42413F582E43400F583EBF0A38A
:1006A300EAF0A3E9F0EE75F008A42418F582E43427
:1006B30000F583E0FCA3E0FDEF75F008A42418F532
:1006C30082E43400F583ECF0A3EDF0900053E0FEF8
:1006D30075F008A42416F582E43400F583E0FCA346
:1006E300E0FDEF75F008A42416F582E43400F583E9
:1006F300ECF0A3EDF0EE75F008A4241AF582E434CF
:1007030000F583E0FEEF75F008A4241AF582E434C3
:1007130000F583EEF0D2A97F00220F02062BD2A9A7
:100723007F0122E4900066F0900053E0FF900066A2
:10073300E0FEC39F40030207CBEE75F008A4241626
:10074300F582E43400F583E0FEA3E04E707190007F
:1007530066E0FF75F008A4241AF582E43400F583FB
:10076300E06401605AEF75F008A42418F582E434BC
:1007730000F583E0FCA3E0FDEF75F008A42416F573
:1007830082E43400F583ECF0A3EDF0900066E0FF23
:1007930075F008A42413F582E43400F583E0FBA389
:1007A300E0FAA3E04A4B6017EF75F008A42413F5B1
:1007B30082E43400F583A3E0FAA3E0F912040D9078
:1007C3000066E004F002072B2278EDE4F6D8FD90F2
:1007D30000007FFF7E1DE4F0A3DFFCDEFA758107D6
:1007E300020821020AFEE493A3F8E493A34003F66C
:1007F3008001F208DFF48029E493A3F85407240C62
:10080300C8C333C4540F4420C8834004F456800142
:1008130046F6DFE4800B0102040810204080900CB0
:100823007DE47E019360BCA3FF543F30E509541F70
:10083300FEE493A360010ECF54C025E060A840B846
:10084300E493A3FAE493A3F8E493A3C8C582C8CAC4
:10085300C583CAF0A3C8C582C8CAC583CADFE9DE97
:10086300E780BE900066EBF0A3EAF0A3E9F0A3EC07
:10087300F0A3EDF0E4FF900053E0FEEFC39E506E53
:10088300EF75F008A42413F582E43400F583E0FB4C
:10089300A3E0FAA3E0F9C003C002C001900066E040
:1008A300FBA3E0FAA3E0F9D082D083D0E06B700819
:1008B300E965827003EA65837031900069E0FCA307
:1008C300E0FDEF75F008A42416F582E43400F58307
:1008D300ECF0A3EDF0EF75F008A42418F582E434EE
:1008E30000F583ECF0A3EDF07F00220F80887F01F9
:1008F30022900066ECF0A3EDF0900000E0C39408B2
:10090300748094805067E0FF75F008A42413F58287
:10091300E43400F583EBF0A3EAF0A3E9F09000667A
:10092300E0FCA3E0FDEF75F008A42418F582E4349D
:1009330000F583ECF0A3EDF0900000E0FF75F00804
:10094300A42416F582E43400F583ECF0A3EDF0EF74
:1009530075F008A4241AF582E43400F583E4F090DA
:100963000000E004F0E0900053F07F00227F0122BA
:10097300900066EBF0A3EAF0A3E9F0E4FF900053E4
:10098300E0FEEFC39E5050EF75F008A42413F582E8
:10099300E43400F583E0FBA3E0FAA3E0F9C003C06D
:1009A30002C001900066E0FBA3E0FAA3E0F9D08265
:1009B300D083D0E06B7008E965827003EA658370C9
:1009C30013EF75F008A4241AF582E43400F583EDDF
:1009D300F07F00220F80A67F012278FBE6FBAF9F0A
:1009E300C3EF9BFFE49400FEE49400FDE49400FC59
:1009F300E47BF07AD2F9F812020BE42FFFEE3436DF
:100A0300FEED346EFDEC3401FC9000761203D090C1
:100A13000076E0FCA3E0FDA3E0FEA3E0FFC00790A7
:100A2300FE01E0FBE4FAF9F8D00712029690007693
:100A33001203D0900076E0FCA3E0FDA3E0FEA3E068
:100A4300FF2290000474FFF0A37407F0A37426F050
:100A530090000174FFF0A3740BF0A37490F0900066
:100A63000774FFF0A37408F0A374F4F0A374FFF009
:100A7300A37406F0A3740CF0A374FFF0A37408F03E
:100A8300A37466F0A374FFF0A37409F0A37473F066
:100A9300E4900053F078547C007D017B017A007967
:100AA30001FE7F120200F6C0E0C0F0C083C082C026
:100AB300D075D000C000C001C002C003C004C0058F
:100AC300C006C007E59830E0085398FE120C348046
:100AD3000FE59830E10A5398FD900093E054FEF03F
:100AE300D007D006D005D004D003D002D001D00067
:100AF300D0D0D082D083D0F0D0E03212000E120AD0
:100B0300457BFF7A007903C00290005AA3E0FAA361
:100B1300E0F5828A83D0027DF47C011204117BFF0D
:100B23007A007906C00290005AA3E0FAA3E0F582A6
:100B33008A83D0027DF47C01120411900057A3E054
:100B4300FAA3E0F912040D80F2C0E0C0F0C083C044
:100B530082C0D075D000C000C001C002C003C00471
:100B6300C005C006C007900054A3E0FAA3E0F91241
:100B7300040DD007D006D005D004D003D002D00195
:100B8300D000D0D0D082D083D0F0D0E032E4FF9038
:100B93000053E0FEEFC39E5032EF75F008A4241615
:100BA300F582E43400F583E0FCA3E0D39400EC94F5
:100BB300004015EF75F008A42416F582E43400F51F
:100BC3008374FFF5F01201A70F80C42278667C00BE
:100BD3007D017BFF7A0C799E7E007F091200F6E48B
:100BE300900067F090006A1203DC000003E89000B5
:100BF3006E7401F0FB7A0079661204C27D01E4FF92
:100C0300020C5D75930075940075910075920075E3
:100C1300950075960075B10075B20075B30075B493
:100C23000075C90075CA0043FF105395FE43960132
:100C330022AF99EF647F6007AF99EF6480701590DE
:100C43000092E004F0C3940A74809480400BE4F0B3
:100C530075C76022E4900092F022ED24FF92A9EF81
:100C63005402FEE5B754FD4EF5B7EF540125E0FFFE
:100C7300E5B854FD4FF5B87F0022410092004400CF
:100C83008A0000000044008E000000004100930031
:100C93004100000000000000000000000000000010
:0F0CA30000000000000000000000000000000042
:00000001FF
